:100000000C9434000C9446000C9446000C9446006A
:100010000C9446000C9446000C9446000C94460048
:100020000C9446000C9446000C9446000C94460038
:100030000C9446000C9446000C9446000C94460028
:100040000C9446000C9446000C9446000C94460018
:100050000C9446000C9446000C9446000C94460008
:100060000C9446000C94460011241FBECFEFD8E03C
:10007000DEBFCDBF21E0A0E0B1E001C01D92AA30FB
:10008000B207E1F70E945A000C9498000C9400000B
:10009000892B41F05A9A672B41F05B9A452B41F42A
:1000A0002B9808955A98672BC1F75B98452BC1F39D
:1000B0002B9A08958AB18C608AB9239A8AB18F737A
:1000C0008AB92B9A2FEF83ED90E321508040904026
:1000D000E1F700C0000089B186FB882780F990E035
:1000E000809302019093030129B1221F2227221F2E
:1000F000422F50E05093010140930001809304018E
:1001000090930501211181E08093080190930901EA
:100110002B98409106015091070160910401709164
:10012000050180910801909109010E944800C9CF02
:04013000F894FFCF71
:00000001FF
